:020000040000FA
:100000000C9464000C948C000C948C000C942809C3
:100010000C9428090C9428090C948C000C94040866
:100020000C948C000C948C000C948C000C94A00903
:100030000C948C000C948C000C948C000C948C0010
:100040000C94DE080C948C000C94AC080C9486087C
:100050000C948C000C948C000C948C000C948C00F0
:100060000C948C000C948C000000000024002700ED
:100070002A0000000008000201000003040700003D
:1000800000000000000002000000002300260029FC
:100090000000000000250028002B000404040404D4
:1000A0000404040202020202020303030303030125
:1000B00002040810204080010204081020010204FC
:1000C000081020005C0AF21211241FBECFEFD8E006
:1000D000DEBFCDBF12E0A0E0B1E0E2EDF0E302C090
:1000E00005900D92AE30B107D9F723E0AEE0B2E053
:1000F00001C01D92A83EB207E1F710E0C3E6D0E0D0
:1001000004C02197FE010E944916C236D107C9F7E3
:100110000E94130C0C945C180C9400000F931F9316
:10012000CF93DF93C0918D03EEE8F3E0CD3211F071
:10013000EDE8F3E08F0120E030E0A901D801DD9186
:100140008D0180ED8D0F8A3090F4AAE0B0E00E941E
:100150007F142D2FDD0F330B440B550B260F371F4C
:10016000481F591F2053310941095109E7CFA4E61F
:10017000B0E00E947F14AB01BC01DF01819190EDE2
:10018000980F9A30D0F38E3259F511968C911197C1
:1001900090ED980F9A3020F5082E000C990BC0971F
:1001A0002AE0289F8001299F100D1124012E000CA8
:1001B000220B330B400F511F621F731F12968C913D
:1001C00090ED980F9A3060F4082E000C990BC097B0
:1001D000092E000CAA0BBB0B480F591F6A1F7B1F6F
:1001E000CD3239F470956095509541955F4F6F4FC2
:1001F0007F4FCB01BA01DF91CF911F910F910895ED
:100200004F925F926F927F928F929F92AF92BF9226
:10021000CF92DF92EF92FF921F93CF93DF93CDE8BF
:10022000D3E0FE01C12CD12C7601119180ED810F1C
:100230008A30A8F4AAE0B0E0A70196010E947F14DA
:10024000C12E110FDD08EE08FF08C60ED71EE81EEE
:10025000F91E80E3C81AD108E108F108E6CFC7010A
:10026000B60124E630E040E050E00E94C9149B0152
:10027000AC0160EA76E881E090E00E9419164B013B
:100280005C019E01899190ED980F9A30D0F38E32E7
:1002900021F5E901219680E1482E87E2582E612C54
:1002A000712CA99180ED8A0F8A30B8F40A2E000CC7
:1002B000BB0BD097A30192010E948A14860E971E51
:1002C000A81EB91EC301B2012AE030E040E050E0B0
:1002D0000E94C91429013A01E4CFC701B60124E6FE
:1002E00030E040E050E00E94C91460E472E48FE026
:1002F00090E00E9419166B017C01C501B4016D5F8D
:100300007F4F8F4F9F4F26E030E040E050E00E944B
:10031000C914C701B601620F731F841F951FDF91B7
:10032000CF911F91FF90EF90DF90CF90BF90AF9053
:100330009F908F907F906F905F904F900895AF92B5
:10034000BF92CF92DF92EF92FF920F931F93CF93C2
:10035000DF936C017B018B01040F151FEB015E0124
:10036000AE18BF08C017D10759F06991D601ED91B9
:10037000FC910190F081E02DC6010995892B79F758
:10038000C501DF91CF911F910F91FF90EF90DF900A
:10039000CF90BF90AF900895FC01538D448D252FD1
:1003A00030E0842F90E0821B930B541710F0CF960F
:1003B000089501970895FC01918D828D981761F041
:1003C000A28DAE0FBF2FB11D5D968C91928D9F5F58
:1003D0009F73928F90E008958FEF9FEF0895FC0137
:1003E000918D828D981731F0828DE80FF11D858DEA
:1003F00090E008958FEF9FEF0895FC01918D228D7D
:10040000892F90E0805C9F4F821B91098F73992701
:1004100008958FE692E00E94FD0121E0892B09F406
:1004200020E0822F089580E090E0892B29F00E943F
:10043000090281110C9400000895FC01A48DA80FFD
:10044000B92FB11DA35ABF4F2C91848D90E0019616
:100450008F739927848FA689B7892C93A089B18936
:100460008C91837080648C93938D848D981306C0D7
:100470000288F389E02D80818F7D80830895EF923B
:10048000FF920F931F93CF93DF93EC0181E0888F4E
:100490009B8D8C8D98131AC0E889F989808185FF1E
:1004A00015C09FB7F894EE89FF896083E889F989C0
:1004B00080818370806480839FBF81E090E0DF91C2
:1004C000CF911F910F91FF90EF900895F62E0B8D15
:1004D00010E00F5F1F4F0F731127E02E8C8D8E11D0
:1004E0000CC00FB607FCFACFE889F989808185FF37
:1004F000F5CFCE010E941D02F1CFEB8DEC0FFD2F49
:10050000F11DE35AFF4FF0829FB7F8940B8FEA89F1
:10051000FB8980818062CFCFCF93DF93EC01888D00
:100520008823B9F0AA89BB89E889F9898C9185FD6E
:1005300003C0808186FD0DC00FB607FCF7CF8C91FC
:1005400085FFF2CF808185FFEDCFCE010E941D0295
:10055000E9CFDF91CF91089590E0FC01EE58FF4F75
:100560002491FC01E155FF4F3491FC01E556FF4F0A
:10057000E491EE23C9F0222339F0233001F1A8F4ED
:10058000213019F1223029F1F0E0EE0FFF1FEF5674
:10059000FF4FA591B4918FB7F894EC91611126C0EB
:1005A00030953E233C938FBF08952730A9F0283023
:1005B000C9F0243049F7809180008F7D03C080917D
:1005C00080008F7780938000DFCF84B58F7784BDE4
:1005D000DBCF84B58F7DFBCF8091B0008F77809388
:1005E000B000D2CF8091B0008F7DF9CF3E2BDACF13
:1005F000CF93DF9390E0FC01E155FF4F24918556A6
:100600009F4FFC0184918823D1F090E0880F991FBF
:10061000FC01E859FF4FA591B491FC01EF56FF4F43
:10062000C591D49161110EC09FB7F8948C91E22FBF
:10063000E0958E238C932881E223E8839FBFDF918E
:10064000CF9108958FB7F894EC91E22BEC938FBF84
:10065000F6CF8F929F92AF92BF92CF92DF92EF929E
:10066000FF920F931F93CF938C016A017B018091BE
:100670000001863079F08F3F09F44FC0CF911F9170
:100680000F91FF90EF90DF90CF90BF90AF909F9031
:100690008F900895E6E8F0E0C491C7FDEFCF61E0E8
:1006A00086E00E94F802C1114EC0980150E040E07F
:1006B00068E478EE81E090E00E94601449015A01FC
:1006C00081E0881A9108A108B10885B5887F836008
:1006D00085BDD801AA0FBB1FA70196010E947F14F8
:1006E00028EE33E040E050E00E94C914C13009F424
:1006F000B4C0C23009F4C3C0C111C0CF87BC2093BD
:100700006B0230936C0240936D0250936E028091A5
:100710006E00826080936E00B1CF86E0809300010E
:10072000E6E8F0E0C491CF3F09F4A8CFC13009F466
:100730003DC018F1C23009F457C0C7FD9FCF61E03A
:1007400086E00E94F802980150E040E0C23009F0D3
:100750006DC060E970ED83E090E00E946014490193
:100760005A0181E0881A9108A108B1088091B1006E
:10077000887F83608093B100ACCF14BC15BC84B576
:10078000826084BD85B5816085BDE1EAF0E0E491D9
:10079000F0E0EE0FFF1FEF56FF4F85919491E5EBD0
:1007A000F0E0E491E0936202C0E079CF1092800023
:1007B00010928100809181008860809381008091F7
:1007C0008100816080938100E1EAF0E0E491F0E053
:1007D000EE0FFF1FEF56FF4F85919491E5EBF0E090
:1007E000E491E09361025BCF1092B0001092B100EF
:1007F0008091B00082608093B0008091B1008160F0
:100800008093B100E1EAF0E0E491F0E0EE0FFF1F29
:10081000EF56FF4F859194919093600280935F0211
:10082000E5EBF0E0E491E0935E0239CF60E072E145
:100830008AE790E00E94601449015A0181E0881A19
:100840009108A108B108C13009F043CF809181001F
:10085000887F8160809381003CCF90928900809254
:100860008800209367023093680240936902509396
:100870006A0280916F00826080936F00FFCE809249
:10088000B300209363023093640240936502509357
:10089000660280917000826080937000EFCE8E308F
:1008A00008F08E508770806480937C0080917A007D
:1008B000806480937A0080917A0086FDFCCF8091DD
:1008C00078009091790008953FB7F8948091540290
:1008D00090915502A0915602B091570226B5A89B5F
:1008E00005C02F3F19F00196A11DB11D3FBFBA2FC2
:1008F000A92F982F8827BC01CD01620F711D811D82
:10090000911D42E0660F771F881F991F4A95D1F706
:1009100008958F929F92AF92BF92CF92DF92EF9203
:10092000FF924B015C010E9464046B017C010E94F8
:1009300064046C197D098E099F09683E7340810526
:100940009105A8F321E0821A9108A108B10888EE68
:10095000C80E83E0D81EE11CF11C81149104A1048F
:10096000B10429F7FF90EF90DF90CF90BF90AF9048
:100970009F908F9008952FB7F894609150027091D6
:10098000510280915202909153022FBF08952091FD
:100990005A0230915B022817390771F4909158027E
:1009A00080915902981741F0E0915802F0E0E15F20
:1009B000FD4F808190E008958FEF9FEF0895089597
:1009C000EF92FF920F931F93CF93DF93DC015C961E
:1009D000ED90FC905D97E114F10479F481E090E0F2
:1009E00013969C938E93129790E080E0DF91CF91C5
:1009F0001F910F91FF90EF9008955196ED91FC910A
:100A0000529750968C915097982F90950FB75E966D
:100A10002C915E97122F127021FD6095F894208121
:100A2000112319F1282B2083E7012197F1F728E002
:100A3000462F50E0308160FF1AC0382B3083E70129
:100A40002197F1F7BA0175956795215089F7112320
:100A500081F08081892380830FBF5C968D919C916A
:100A60000197F1F781E090E0C1CF2923DCCF392352
:100A7000E5CF9081892BEFCF20915A0230915B0214
:100A80002817390771F4809159022091580290E09B
:100A9000805C9F4F821B910960E470E00E943516D4
:100AA000089590E080E0089520915A0230915B0211
:100AB00028173907B9F49091580280915902981774
:100AC00089F0E0915802F0E0E15FFD4F80812091D4
:100AD000580230E02F5F3F4F2F7333272093580287
:100AE00090E008958FEF9FEF0895089590E080E0E3
:100AF0000895CF93DF93EC0160E08E810E94AC02F9
:100B000061E08E810E94AC0260E08E810E94AC02A6
:100B10008BE891E00197F1F7DF91CF910895CF92A3
:100B2000DF92EF92FF920F931F93CF93DF936C01AD
:100B30007C0187E0E80EF11CD0E0C0E0062F10E059
:100B4000B8010C2E02C0759567950A94E2F76170A2
:100B5000F70181917F010E94AC022196C430D1053A
:100B600079F7C601DF91CF911F910F91FF90EF9020
:100B7000DF90CF900C947905CF92DF92EF92FF92A5
:100B80000F931F93CF93DF93EC01F62E642F8C818C
:100B90000E94AC028D818F3F19F060E00E94AC0290
:100BA0000F2D10E08F8584FF25C06E0187E0C80EF1
:100BB000D11CF12CE12CB8010E2C02C07595679563
:100BC0000A94E2F76170F60181916F010E94AC0214
:100BD000FFEFEF1AFF0A88E0E816F10461F7CE0193
:100BE000DF91CF911F910F91FF90EF90DF90CF9009
:100BF0000C947905B80184E0759567958A95E1F7BD
:100C0000CE010E948F056F2DCE01DF91CF911F91F4
:100C10000F91FF90EF90DF90CF900C948F0540E004
:100C2000682F89EC93E00C94BC0581E00E940F06CC
:100C30008BE39FE10197F1F70895CF93DF93623043
:100C400029F49091D80398609093D8036093DC03C3
:100C50001092DD0390E49093DE038093DF03805CC9
:100C60008093E00361E08091CD030E94F8028091BF
:100C7000CE038F3F19F061E00E94F80261E080919D
:100C8000CF030E94F802C9ECD3E09E01295C3340F7
:100C90008091D80384FD0BC084E090E02196281752
:100CA000390744F461E08E810E94F802EECF88E0BB
:100CB00090E0F4CF8BE39DE00197F1F760E0809145
:100CC000CD030E94AC0260E08091CF030E94AC0291
:100CD0008091CE038F3F19F060E00E94AC028091BA
:100CE000D80384FD34C063E089EC93E00E948F0553
:100CF000CBE4D6E4CE010197F1F763E089EC93E011
:100D00000E948F052197F1F763E089EC93E00E9440
:100D10008F0583E592E00197F1F762E089EC93E0BB
:100D20000E948F058091D80380620E940F0684E0A4
:100D30008093D9038CE00E940F060E94150682E082
:100D40008093DA0386E0DF91CF910C940F068062E6
:100D50000E940F068BE496E40197F1F78091D80387
:100D600080620E940F0683E592E00197F1F780917F
:100D7000D80380620E940F06D5CF9091DC038917BB
:100D800010F08FEF890FE82FF0E0E753FC4F8489D4
:100D900080680C940F0641E00E94BC0581E090E061
:100DA0000895FB0101900020E9F73197AF01461B40
:100DB000570BDC01ED91FC910280F381E02D099449
:100DC0008F929F92AF92BF920F931F93CF93DF9317
:100DD000CDB7DEB7A1970FB6F894DEBF0FBECDBF7B
:100DE00019A2423008F44AE08E010F5D1F4F842E95
:100DF000912CB12CA12CA50194010E94C914E62FBD
:100E0000B901CA01EA3004F5E05DD801EE938D0125
:100E1000232B242B252B79F790E080E0109729F0E5
:100E2000BD018FE692E00E94D106A1960FB6F8941C
:100E3000DEBF0FBECDBFDF91CF911F910F91BF904D
:100E4000AF909F908F900895E95CDFCF4F925F92B3
:100E50006F927F928F929F92AF92BF92CF92DF92CA
:100E6000EF92FF920F931F93CF936B017C01742E2F
:100E7000AC019B010E94141667E371E0811126C04A
:100E800046015701E894B7F82FEF3FEF4FE75FE7D0
:100E9000C501B4010E94141681110CC02FEF3FEF61
:100EA0004FE75FE7C501B4010E943C136BE371E0BB
:100EB000181664F02FEF3FEF4FE75FE4C701B6016C
:100EC0000E940F161816ACF46FE371E08FE692E003
:100ED000CF911F910F91FF90EF90DF90CF90BF9037
:100EE000AF909F908F907F906F905F904F900C94F9
:100EF000D1062FEF3FEF4FE75FECC701B6010E942D
:100F00003C1387FDE1CF20E030E0A901C701B60125
:100F10000E943C1310E000E087FF0AC06DE28FE6FC
:100F200092E00E943F028C01F7FAF094F7F8F094F7
:100F3000C0E060E070E080E09FE37C1641F020E0DC
:100F400030E040E251E40E946715CF5FF6CFA70181
:100F500096010E94FB142B013C010E94E0154B01FD
:100F60005C014AE00E94E0067C01E00EF11ECC2309
:100F7000C1F1C501B4010E9441139B01AC01C30141
:100F8000B2010E94FA144B015C016EE28FE692E01E
:100F90000E943F02E80EF91EC15018F120E030E037
:100FA00040E251E4C501B4010E94A2132B013C01AF
:100FB0000E94E0154B01B12CA12C4AE0C501B401FF
:100FC0000E94E006E80EF91EC501B4010E9441131B
:100FD0009B01AC01C301B2010E94FA144B015C01F8
:100FE000DBCFC701CF911F910F91FF90EF90DF9062
:100FF000CF90BF90AF909F908F907F906F905F90B9
:101000004F9008950C94D1061F920F920FB60F9235
:1010100011242F933F934F935F936F937F938F93FD
:101020009F93AF93BF93EF93FF938091630290914F
:101030006402A0916502B0916602892B8A2B8B2BEA
:10104000D1F190915E02E0915F02F09160028081A7
:10105000892780838091630290916402A091650248
:10106000B0916602181619061A061B069CF48091A8
:10107000630290916402A0916502B09166020197AB
:10108000A109B1098093630290936402A093650261
:10109000B0936602FF91EF91BF91AF919F918F91B5
:1010A0007F916F915F914F913F912F910F900FBE64
:1010B0000F901F90189580910001E6E8F0E0E49110
:1010C0009FEF90930001E13051F030F0E23069F091
:1010D00060E00E94AC02DECF10926E00F9CF9091DA
:1010E0006F009D7F90936F00F3CF909170009D7F74
:1010F0009093700091E09093B0009091B100987F30
:1011000094609093B1001092B300E2CF1F920F92BF
:101110000FB60F9211242F933F934F935F936F93CA
:101120007F938F939F93AF93BF93EF93FF938FE63C
:1011300092E00E941D02FF91EF91BF91AF919F91AC
:101140008F917F916F915F914F913F912F910F9070
:101150000FBE0F901F9018951F920F920FB60F920F
:1011600011242F938F939F93EF93FF93E0917F022E
:10117000F09180028081E0918502F091860282FDEB
:101180001BC09081809188028F5F8F7320918902AC
:10119000821741F0E0918802F0E0E159FD4F958F10
:1011A00080938802FF91EF919F918F912F910F90E3
:1011B0000FBE0F901F9018958081F4CF1F920F9251
:1011C0000FB60F9211242F933F938F939F93AF935A
:1011D000BF938091500290915102A0915202B09120
:1011E000530230914F0223E0230F2D3758F501961B
:1011F000A11DB11D20934F02809350029093510284
:10120000A0935202B09353028091540290915502E0
:10121000A0915602B09157020196A11DB11D809375
:10122000540290935502A0935602B0935702BF9177
:10123000AF919F918F913F912F910F900FBE0F9083
:101240001F90189526E8230F0296A11DB11DD2CF3D
:101250001F920F920FB60F9211242F933F934F932B
:101260005F936F937F938F939F93AF93BF93EF930E
:10127000FF93E0915A02F0915B02309749F0A68506
:10128000B7858585968D91FF14C09C918923A1F423
:10129000FF91EF91BF91AF919F918F917F916F914E
:1012A0005F914F913F912F910F900FBE0F901F9024
:1012B00018959C91892361F7A389B4899C918589AC
:1012C000809589238C93868997890197F1F7608DA2
:1012D000718DA685B785558538E020E0CB01019753
:1012E000F1F7822F90E095958795282F4C91452313
:1012F00009F02068315091F7868D81FD209580910D
:10130000590290E001968F7399273091580238174F
:1013100099F0A0915902B0E0A15FBD4F2C9380934A
:101320005902828D938D0197F1F7A389B4898C912D
:101330009589892B8C93ACCF868D8160868FF1CF78
:101340001F920F920FB60F9211242F933F934F933A
:101350005F936F937F938F939F93AF93BF93CF933D
:10136000DF93EF93FF9380910E02C0913003D0E0A2
:1013700087FF24C0109285001092840080910E0295
:101380008F5F80930E0280910E02082E000C990B45
:101390008C179D0724F480910E028C30C4F180914B
:1013A000840090918500049680349C4908F47AC0AA
:1013B0008091840090918500049676C080910E0201
:1013C000082E000C990B8C179D07C4F6E0910E02B5
:1013D0008E2FEE0F990BFC01EE0FFF1FE80FF91F88
:1013E000E45FFC4F808186FFC9CFE0910E028E2F13
:1013F000EE0F990BFC01EE0FFF1FE80FF91FE45FE2
:10140000FC4F808160E08F730E94AC02B7CF2091C7
:10141000840030918500E0910E028E2FEE0F990B23
:10142000FC01EE0FFF1FE80FF91FE45FFC4F818105
:101430009281820F931F9093890080938800E0919E
:101440000E028E2FEE0F990BFC01EE0FFF1FE80F1F
:10145000F91FE45FFC4F808186FF11C0E0910E020E
:101460008E2FEE0F990BFC01EE0FFF1FE80FF91FF7
:10147000E45FFC4F808161E08F730E94AC02FF91BA
:10148000EF91DF91CF91BF91AF919F918F917F911C
:101490006F915F914F913F912F910F900FBE0F90E1
:1014A0001F90189580E49CE99093890080938800B0
:1014B0008FEF80930E02E3CF1092720210927102AE
:1014C00088EE93E0A0E0B0E0809373029093740202
:1014D000A0937502B09376028BE091E09093700236
:1014E00080936F0285EC90E090937C0280937B0266
:1014F00084EC90E090937E0280937D0280EC90E0FB
:101500009093800280937F0281EC90E0909382021E
:101510008093810282EC90E0909384028093830216
:1015200086EC90E090938602809385021092880268
:101530001092890210928A0210928B0280913003DD
:101540008C3008F057C191E0980F9093300380934E
:10155000E10390E0FC01EE0FFF1FE80FF91FE45FCD
:10156000FC4F88EB9BE0928381831092CC03109216
:10157000CB038FE291E09093CA038093C9038CE080
:101580008093CD038FEF8093CE038BE08093CF03C6
:1015900085E08093D00384E08093D10383E080933F
:1015A000D20382E08093D3031092D4031092D50328
:1015B0001092D6031092D7031092D80361E080E115
:1015C0000E941D061092AD031092AC0388EE93E0CA
:1015D000A0E0B0E08093AE039093AF03A093B0037C
:1015E000B093B1038DE191E09093AB038093AA0394
:1015F0001092C1031092C0031092C3031092C20351
:101600001092C5031092C4031092C7031092C60330
:101610006091C8036E7F6D7F6093C80366956170AB
:1016200081E068278AE00E94AC0261E08AE00E94C3
:10163000F802E9EBF0E0E491E093BA03E5EAF0E0C8
:10164000E491F0E0EE0FFF1FEF56FF4F859194916C
:101650009093BC038093BB0360E089E00E94F80292
:101660008091C80381FD04C061E089E00E94AC0262
:1016700089E08093B603E8EBF0E0E491E093B703F0
:10168000E4EAF0E0E491F0E0EE0FFF1FE957FF4FCE
:10169000859194919093B9038093B8034FEF5FEFD6
:1016A000BA01409337035093380360933903709322
:1016B0003A0310923F03109240031092410310929C
:1016C00042038FEF99ECAAE9BBE380934703909321
:1016D0004803A0934903B0934A0380934F03909328
:1016E0005003A0935103B0935203809357039093F8
:1016F0005803A0935903B0935A0380935F039093C8
:101700006003A0936103B093620380936703909397
:101710006803A0936903B0936A0340936F035093E7
:10172000700360937103709372038FEF90E0909356
:1017300078038093770340937B0350937C036093FB
:101740007D0370937E0340938303509384036093DF
:1017500085037093860310928B0310928C0382E0B2
:1017600080939C0310929D0310929E0310929F03FE
:101770001092A0031092A1031092A2031092A3034F
:101780001092A5031092A4031092A7031092A6032F
:1017900010928D0310923203109231031092340391
:1017A00010923303109236031092350361E070E01B
:1017B00090E080E00E948F17009701F19093320330
:1017C0008093310310923403109233032091350338
:1017D00030913603232B11F4FC0110821092360352
:1017E000109235036DEE71E08091310390913203D8
:1017F0000C9455188FEF8093E103B7CE809131039D
:1018000090913203009711F00E9406171092320354
:101810001092310310923603109235031092340364
:10182000109233030895789484B5826084BD84B5A2
:10183000816084BD85B5826085BD85B5816085BDCB
:1018400080916E00816080936E0010928100809183
:10185000810082608093810080918100816080930B
:101860008100809180008160809380008091B10030
:1018700084608093B1008091B00081608093B0005B
:1018800080917A00846080937A0080917A008260EF
:1018900080937A0080917A00816080937A008091B1
:1018A0007A00806880937A001092C10061E088E03D
:1018B0000E94F80261E081E00E94F80261E087E0A6
:1018C0000E94F8028091E1038C3008F051C061E081
:1018D0008DE00E94F8028091E103282F30E0F901A9
:1018E000EE0FFF1FE20FF31FE45FFC4F9081907C2F
:1018F0009D6090831092E2031092E3032CE0622F2C
:101900000E942916829FB001112430E020E0AB0133
:10191000420F531FFA01EE0FFF1FE40FF51FE45FA4
:10192000FC4F908196FD16C02F5F3F4F2C30310544
:1019300071F781110FC01092800082E080938100C6
:101940001092850010928400B19A80916F0082609D
:1019500080936F00E091E1038E2F90E0FC01EE0F89
:10196000FF1FE80FF91FE45FFC4F808180648083D4
:1019700061E086E00E94F80262E08EE00E941D06AF
:1019800064E670E080E090E00E94890460E08EE010
:101990000E94F80260E08FE00E94F80261E086E0B9
:1019A0000E94F80261E087E00E94F80261E08AE0AC
:1019B0000E94F80260E087E00E94AC0260E08AE0EA
:1019C0000E94AC021092C5031092C4031092C3038C
:1019D0001092C2031092C1031092C0038DE991E0EE
:1019E0009093C7038093C6039091B603963108F095
:1019F00047C02DEB30E03093C1032093C0032BE9A7
:101A000031E03093C3032093C2032CE231E03093E2
:101A1000C5032093C4032091680084E0983048F007
:101A200031E09E3008F430E081E001C0880F3A9543
:101A3000EAF7822B809368002DE630E0983050F072
:101A40002BE630E09E3030F02CE630E0963110F09E
:101A500030E020E03093BE032093BD03292F30E017
:101A6000983008F0D4C181E001C0880F9A95EAF758
:101A70008093BF038091C6039091C7030197F1F74C
:101A80008091C4039091C503892B49F1E0915A02DA
:101A9000F0915B0223E0EA3AF20709F1309739F05E
:101AA000A389B4899C918589809589238C938091A1
:101AB000C8038E7F8093C803109259021092580277
:101AC0008AEA93E090935B0280935A02E091BD030F
:101AD000F091BE0380819091BF03892B8083E091B8
:101AE0007F02F091800282E08083E0917B02F0919E
:101AF0007C021082E0917D02F0917E028FEC808367
:101B000010928702E0918302F091840286E0808344
:101B1000E0918102F0918202808180618083E09176
:101B20008102F0918202808188608083E09181024D
:101B3000F0918202808180688083E0918102F0913F
:101B4000820280818F7D8083C8E82C2E312CD4EBDB
:101B50004D2E512C612C712CC2E008E512E08EE074
:101B60000E944F048FE00E944F048EE00E944F04B9
:101B7000BC01990F880B990B0E94431320E030E0C1
:101B800040EA50E40E94A21320E030E048EC52E426
:101B90000E94A21320E030E040E85AE30E94A21322
:101BA0000E94D9154B018FE00E944F04BC01990F90
:101BB000880B990B0E94431320E030E040EA50E488
:101BC0000E94A21320E030E048EC52E40E94A213ED
:101BD00020E030E040E85AE30E94A2130E94D915A9
:101BE00070935D0260935C0262E370E080E090E0DD
:101BF0000E9489040E94BB046B017C010E94BB040B
:101C00006C197D098E099F09683E73408105910515
:101C100008F0DEC28FE692E00E94FD01892B71F38D
:101C20008FE692E00E94DB01D82F8091A003909173
:101C3000A103A091A203B091A3030196A11DB11D20
:101C40008093A0039093A103A093A203B093A30356
:101C5000D43209F49CC2E0919E03D5320CF0E4C06A
:101C6000DA3019F0DD3009F09FC2EF3008F0C1C062
:101C700090919D03F0E0E357FC4F108280918C031C
:101C8000882309F451C120918D03822F022E000C6C
:101C9000990B3FEB320F363008F0D2C0C7978295D0
:101CA000807F90918E03292F092E000C330B4FEB70
:101CB000490F463008F0CCC027533109280F8091D6
:101CC0008B03281327C180919F03882309F491C0B7
:101CD0008091A4039091A50301969093A50380930E
:101CE000A40380917F0390918003A0918103B09120
:101CF000820380937B0390937C03A0937D03B09336
:101D00007E038091870390918803A0918903B0910D
:101D10008A038093830390938403A0938503B093F5
:101D2000860380919C03882309F49BC0813009F0CD
:101D300060C080913B0390913C03A0913D03B09122
:101D40003E038093370390933803A0933903B093F5
:101D50003A038091430390914403A0914503B091CD
:101D6000460380933F0390934003A0934103B093B5
:101D7000420380914B0390914C03A0914D03B0918D
:101D80004E038093470390934803A0934903B09375
:101D90004A038091530390915403A0915503B0914D
:101DA000560380934F0390935003A0935103B09335
:101DB00052038091630390916403A0916503B091F5
:101DC000660380935F0390936003A0936103B093D5
:101DD000620380916B0390916C03A0916D03B091AD
:101DE0006E038093670390936803A0936903B09395
:101DF0006A0380919D038F5F80939D0310929E03E1
:101E000081E0DA3209F080E080938C0303CF9E30CA
:101E100040F42850310981E001C0880F2A95EAF783
:101E200027CE2E503109F7CFDA3209F41ECFDC323B
:101E300009F0BAC180918B038D2780938B0315CF56
:101E40002156263018F48755910929CFC09727CFFE
:101E50009156963018F42755310930CF2053310967
:101E60002DCF80915B0390915C03A0915D03B091B5
:101E70005E038093570390935803A0935903B09344
:101E80005A0380913B0390913C03A0913D03B09194
:101E90003E038093370390933803A0933903B093A4
:101EA0003A0380914B0390914C03A0914D03B09164
:101EB0004E038093470390934803A0934903B09344
:101EC0004A038091530390915403A0915503B0911C
:101ED000560380934F0390935003A0935103B09304
:101EE00052038091790390917A03909378038093C1
:101EF00077038091730390917403A0917503B0915F
:101F0000760380936F0390937003A0937103B09353
:101F100072036FCF8091A6039091A70301969093CF
:101F2000A7038093A60365CF91111CC04DE853E031
:101F3000A3E4B1E0CA01FC012191CF01222309F4FD
:101F40004AC33D912317B9F3A9E4B1E0FA018191A5
:101F5000AF01882309F443C39D918917B9F3C09356
:101F60009C0347CFE0919C03E23009F442CF80917B
:101F70008D03882309F43DCF20E2E29FF001112474
:101F8000E92B3197E932F10508F033CFE653F04FF2
:101F90000C94491610102B1040105B106610A01006
:101FA000A710B110BC10F90EF90EF90EF90EF90ECA
:101FB000F90EF90EF90EF90EF90EF90EF90EF90EE9
:101FC000F90EF90EF90EF90EF90EF90EF90EF90ED9
:101FD000F90EF90E101025102B1040105B10661032
:101FE00081108C10F30FEDE8F3E020E030E0A90160
:101FF000B19080ED8B0D8A3008F099C0AAE0B0E076
:102000000E947F142B2DBB0C330B440B550B260F5A
:10201000371F481F591F2053310941095109E8CF83
:102020000E948E0060933B0370933C0380933D03BA
:1020300090933E030E94BB0460937F0370938003E0
:102040008093810390938203D4CE91E0813409F48C
:102050007BC090E079C00E94000160934B037093B5
:102060004C0380934D0390934E030E94BB046093F6
:102070008703709388038093890390938A03B9CE72
:10208000833509F0B6CE80914B0390914C03A0911B
:102090004D03B0914E03B095A095909581959F4FBB
:1020A000AF4FBF4F80934B0390934C03A0934D03CE
:1020B000B0934E039ECE0E94000160935303709331
:1020C0005403809355039093560393CE873509F0BC
:1020D00090CE8091530390915403A0915503B091F9
:1020E0005603B095A095909581959F4FAF4FBF4FE8
:1020F0008093530390935403A0935503B0935603D6
:1021000078CE0E948E006093630370936403809383
:102110006503909366036DCE0E948E0060936B03FF
:1021200070936C0380936D0390936E0362CE209343
:10213000430330934403409345035093460359CEE1
:1021400091E081330CF485CF90939F0352CE8DE8BC
:1021500093E00E941613992790937A038093790352
:1021600048CE0E948E006093730370937403809333
:102170007503909376033DCE0E948E0060935B03BF
:1021800070935C0380935D0390935E0332CE109254
:102190009E0310929D0310928B03C0939C03109298
:1021A0008C0310929F0336CDEE3040F481E08E0F09
:1021B00080939E03F0E0E357FC4FD08380918C0323
:1021C000811128CD80918B03D827D0938B0322CD0A
:1021D00042E3841691043CF480915C0290915D028C
:1021E000C2970CF4CDC161E087E00E94AC0280E0B0
:1021F0000E944F0424EB30E0DC010E944F162FEFC9
:1022000033E040E050E00E946014C901690180326F
:1022100052E09507BCF52091E2036101C21AD10892
:1022200027FDD394CC0CDD1CCC0CDD1C0D2C000C3C
:10223000EE08FF082091E303F801E21BF10927FDF6
:10224000F3959F01220F331F220F331F032E000C23
:10225000440B550B2C193D094E095F09DC01853BE8
:10226000910514F0A4EBB0E0B7FF02C0B0E0A0E02D
:102270000E948A14A30192010E946014C20ED31E10
:10228000E41EF51E2091E1032C3080F58091E203DD
:10229000A101481B510987FD5395CA01880F991F59
:1022A000880F991FC816D90684F08091E303F801BE
:1022B000E81BF10987FDF395CF01880F991F880F5F
:1022C000991FC816D9060CF4C6010297880F991FEA
:1022D0006FB7F89430E0A901440F551F240F351F44
:1022E000F901E45FFC4F928381836FBF62E370E08A
:1022F00080E090E00E94890461E088E00E94AC02E6
:1023000061E087E00E94AC0261E08AE00E94AC02DA
:102310000E94150680E00E94BD066FE471E089EC22
:1023200093E00E94020881E00E94BD0660E671E031
:1023300089EC93E00E94020864E670E080E090E09F
:102340000E9489040E94150660E771E089EC93E021
:102350000E94020864E670E080E090E00E94890438
:1023600044EF51E060E070E087E194E00E942903CF
:1023700068EC70E080E090E00E9489044CE251E05B
:1023800060E070E085E594E00E94290368EC70E06D
:1023900080E090E00E94890444E650E060E070E054
:1023A00087E994E00E94290365E070E080E090E016
:1023B0000E9489048090470390904803A0904903AD
:1023C000B0904A03C0904F03D0905003E090510367
:1023D000F09052038091830390918403A091850330
:1023E000B09186038F3F9F4FAF4FBF4F11F00E94B8
:1023F000BB042FEF821629EC92062AE9A2062BE3F2
:10240000B20609F4B4C0C501B4010E94431320E030
:1024100034E244E759E40E9467154B015C01C701AF
:10242000B6010E94431320E034E244E759E40E94DD
:1024300067156B017C016FE771E08FE692E00E9407
:10244000020864E670E080E090E00E9489046AE897
:1024500071E08FE692E00E94020863EA71E08FE685
:1024600092E00E94020864E670E080E090E00E9442
:1024700089046AE871E08FE692E00E94020860EB4E
:1024800071E08FE692E00E94020864E670E080E06E
:1024900090E00E9489046AE871E08FE692E00E9471
:1024A00002086FEB71E08FE692E00E94020868EC90
:1024B00070E080E090E00E94890461ED71E08FE6B9
:1024C00092E00E94020820E030E04AE754E4C501AF
:1024D000B4010E943C13811103C0812C912C540142
:1024E00046E0C501B4010E9426076DED71E08FE65C
:1024F00092E00E94020820E030E04AE754E4C7017D
:10250000B6010E943C13811103C0C12CD12C76016D
:1025100046E0C701B6010E94260768EC70E080E043
:1025200090E00E9489046AE18FE692E00E943F02F7
:102530006BEE71E08FE692E00E94D10668EC70E0ED
:1025400080E090E00E9489046BEE71E08FE692E0FB
:102550000E94D10680E090E0892B09F400CB0E9414
:102560000902882309F4F9CA0E940000F6CA812CE6
:10257000912C8AE7A82E84E4B82E750164015BCF04
:1025800060E087E00E94AC0262E370E080E090E0EF
:102590000E94890460E087E00E94AC0260E08AE06B
:1025A0000E94AC0260E088E00E94AC020E94150626
:1025B00080E00E94BD066EEE71E089EC93E00E941F
:1025C000020881E00E94BD066EEF71E089EC93E0A5
:1025D0000E940208BFCF41E040939C030ACC1092B6
:1025E0009C0307CC8091310390913203009711F046
:1025F0000E9406178DE191E09093AB038093AA03AC
:1026000080915A0290915B028A5A934071F4E09152
:10261000BD03F091BE0390818091BF038095892313
:10262000808310925B0210925A020895FC01882761
:102630009927E89421912032E9F3293010F02E30C7
:10264000C8F32B3241F02D3239F4689404C00E9453
:102650003413820F911D219120532A30C0F31EF4B0
:10266000909581959F4F08957AE0979F902D879F31
:10267000802D910D112408950E947E1308F481E0AD
:102680000895E89409C097FB3EF490958095709565
:1026900061957F4F8F4F9F4F9923A9F0F92F96E9AE
:1026A000BB279395F695879577956795B795F11123
:1026B000F8CFFAF4BB0F11F460FF1BC06F5F7F4FC0
:1026C0008F4F9F4F16C0882311F096E911C07723D2
:1026D00021F09EE8872F762F05C0662371F096E8DB
:1026E000862F70E060E02AF09A95660F771F881FAA
:1026F000DAF7880F9695879597F90895990F00084E
:10270000550FAA0BE0E8FEEF16161706E807F907C3
:10271000C0F012161306E407F50798F0621B730B5E
:10272000840B950B39F40A2661F0232B242B252BDF
:1027300021F408950A2609F4A140A6958FEF811D82
:10274000811D08950E94B5130C9426140E9418143C
:1027500038F00E941F1420F0952311F00C940F14F0
:102760000C94151411240C945A140E94371470F30D
:10277000959FC1F3950F50E0551F629FF001729F26
:10278000BB27F00DB11D639FAA27F00DB11DAA1F35
:10279000649F6627B00DA11D661F829F2227B00D82
:1027A000A11D621F739FB00DA11D621F839FA00D0D
:1027B000611D221F749F3327A00D611D231F849F5D
:1027C000600D211D822F762F6A2F11249F575040B4
:1027D0009AF0F1F088234AF0EE0FFF1FBB1F661F2F
:1027E000771F881F91505040A9F79E3F510580F0F8
:1027F0000C940F140C945A145F3FE4F3983ED4F3F6
:10280000869577956795B795F795E7959F5FC1F79B
:10281000FE2B880F911D9695879597F9089597F946
:102820009F6780E870E060E008959FEF80EC089576
:1028300000240A941616170618060906089500249F
:102840000A9412161306140605060895092E039419
:10285000000C11F4882352F0BB0F40F4BF2B11F48D
:1028600060FF04C06F5F7F4F8F4F9F4F089557FDEC
:102870009058440F551F59F05F3F71F04795880FEE
:1028800097FB991F61F09F3F79F087950895121685
:1028900013061406551FF2CF4695F1DF08C0161631
:1028A00017061806991FF1CF8695710561050894E2
:1028B0000895E894BB2766277727CB0197F90895F9
:1028C000052E97FB1EF400940E94771457FD07D045
:1028D0000E94C91407FC03D04EF40C947714509551
:1028E0004095309521953F4F4F4F5F4F08959095FC
:1028F0008095709561957F4F8F4F9F4F08950E94EF
:10290000EB14A59F900DB49F900DA49F800D911D79
:1029100011240895B7FF0C947F140E947F14821B2A
:10292000930B08952F923F924F925F926F927F92F6
:102930008F929F92AF92BF92CF92DF92EF92FF92CF
:102940000F931F93CF93DF93CDB7DEB7CA1BDB0B7B
:102950000FB6F894DEBF0FBECDBF09942A88398820
:1029600048885F846E847D848C849B84AA84B98427
:10297000C884DF80EE80FD800C811B81AA81B98133
:10298000CE0FD11D0FB6F894DEBF0FBECDBFED0147
:102990000895A1E21A2EAA1BBB1BFD010DC0AA1FA0
:1029A000BB1FEE1FFF1FA217B307E407F50720F0B8
:1029B000A21BB30BE40BF50B661F771F881F991F33
:1029C0001A9469F760957095809590959B01AC017C
:1029D000BD01CF010895A29FB001B39FC001A39F85
:1029E000700D811D1124911DB29F700D811D112448
:1029F000911D08955058BB27AA270E9412150C94C8
:102A000026140E94181438F00E941F1420F039F484
:102A10009F3F19F426F40C9415140EF4E095E7FB8F
:102A20000C940F14E92F0E94371458F3BA17620759
:102A300073078407950720F079F4A6F50C945914D0
:102A40000EF4E0950B2EBA2FA02D0B01B9019001C9
:102A50000C01CA01A0011124FF27591B99F0593F0D
:102A600050F4503E68F11A16F040A22F232F342F55
:102A70004427585FF3CF469537952795A795F040A3
:102A80005395C9F77EF41F16BA0B620B730B840BB8
:102A9000BAF09150A1F0FF0FBB1F661F771F881F70
:102AA000C2F70EC0BA0F621F731F841F48F48795C8
:102AB00077956795B795F7959E3F08F0B0CF9395BA
:102AC000880F08F09927EE0F9795879508950E9433
:102AD0007B150C9426140E941F1458F00E941814A1
:102AE00040F029F45F3F29F00C940F1451110C941D
:102AF0005A140C9415140E94371468F39923B1F3F7
:102B0000552391F3951B550BBB27AA276217730713
:102B1000840738F09F5F5F4F220F331F441FAA1FA7
:102B2000A9F335D00E2E3AF0E0E832D09150504063
:102B3000E695001CCAF72BD0FE2F29D0660F771F11
:102B4000881FBB1F261737074807AB07B0E809F0F7
:102B5000BB0B802DBF01FF2793585F4F3AF09E3F7C
:102B6000510578F00C940F140C945A145F3FE4F361
:102B7000983ED4F3869577956795B795F7959F5FBF
:102B8000C9F7880F911D9695879597F90895E1E00B
:102B9000660F771F881FBB1F621773078407BA076A
:102BA00020F0621B730B840BBA0BEE1F88F7E095C5
:102BB00008950E94E0156894B1110C945A14089578
:102BC0000E943F1488F09F5798F0B92F9927B7516A
:102BD000B0F0E1F0660F771F881F991F1AF0BA95C1
:102BE000C9F714C0B13091F00E945914B1E00895B2
:102BF0000C945914672F782F8827B85F39F0B93FA4
:102C0000CCF3869577956795B395D9F73EF4909573
:102C10008095709561957F4F8F4F9F4F08950E94CB
:102C20007E1308F48FEF08950E947E13880B990B92
:102C30000895DB018F939F930E947F14BF91AF9102
:102C4000A29F800D911DA39F900DB29F900D112406
:102C50000895991B79E004C0991F961708F0961BF8
:102C6000881F7A95C9F78095089597FB072E16F46B
:102C7000009407D077FD09D00E94561607FC05D0B6
:102C80003EF4909581959F4F0895709561957F4F83
:102C90000895EE0FFF1F0590F491E02D09940E9416
:102CA000EB14B7FF0895821B930B0895AA1BBB1B5F
:102CB00051E107C0AA1FBB1FA617B70710F0A61B3C
:102CC000B70B881F991F5A95A9F780959095BC015D
:102CD000CD0108950F931F93CF93DF938230910519
:102CE00010F482E090E0E091E603F091E70330E039
:102CF00020E0B0E0A0E0309799F42115310509F407
:102D00004AC0281B390B24303105D8F58A819B81B4
:102D10006115710589F1FB0193838283FE0111C066
:102D2000408151810281138148175907E0F048170B
:102D3000590799F4109761F012960C931297139615
:102D40001C933296CF01DF91CF911F910F9108957F
:102D50000093E6031093E703F4CF2115310551F0FA
:102D60004217530738F0A901DB019A01BD01DF01C9
:102D7000F801C1CFEF01F9CF9093E7038093E60309
:102D8000CDCFFE01E20FF31F8193919322503109C1
:102D900039832883D7CF2091E4033091E503232B97
:102DA00041F420910301309104013093E503209315
:102DB000E40320910101309102012115310541F414
:102DC0002DB73EB74091050150910601241B350BEC
:102DD000E091E403F091E503E217F307A0F42E1B62
:102DE0003F0B2817390778F0AC014E5F5F4F24176F
:102DF000350748F04E0F5F1F5093E5034093E403FF
:102E0000819391939FCFF0E0E0E09CCFCF93DF934D
:102E10000097E9F0FC01329713821282A091E60339
:102E2000B091E703ED0130E020E01097A1F420819C
:102E30003181820F931F2091E4033091E50328171D
:102E4000390709F061C0F093E503E093E403DF91F3
:102E5000CF910895EA01CE17DF07E8F54A815B813B
:102E60009E0141155105B1F7E901FB83EA834991C0
:102E70005991C40FD51FEC17FD0761F48081918132
:102E80000296840F951FE90199838883828193813B
:102E90009B838A83F0E0E0E012968D919C911397DA
:102EA0000097B9F52D913C911197CD010296820FB3
:102EB000931F2091E4033091E5032817390739F671
:102EC000309751F51092E7031092E603B093E503B3
:102ED000A093E403BCCFD383C28340815181840F8C
:102EE000951FC817D90761F44E5F5F4F888199819C
:102EF000480F591F518340838A819B81938382832A
:102F00002115310509F0B0CFF093E703E093E60314
:102F10009ECFFD01DC01C0CF13821282D7CFB0E07B
:102F2000A0E0E5E9F7E10C9494148C01009751F4CA
:102F3000CB010E946A168C01C801CDB7DEB7E0E173
:102F40000C94B014FC01E60FF71F9C0122503109CC
:102F5000E217F30708F49DC0D901CD91DC911197D8
:102F6000C617D70798F0C530D10530F3CE010497C6
:102F70008617970708F3C61BD70B2297C193D193E7
:102F80006D937C93CF010E940617D6CF5B01AC1ADC
:102F9000BD0A4C018C0E9D1EA091E603B091E70383
:102FA000512C412CF12CE12C109731F58091E40348
:102FB0009091E5038815990509F05CC046165706FF
:102FC00008F058C08091010190910201009741F4EE
:102FD0008DB79EB74091050150910601841B950B5A
:102FE000E817F90708F055C0F093E503E093E40310
:102FF000F90171836083A0CF8D919C9111971296F6
:103000006C90129713967C901397A815B90559F5F3
:103010006C0142E0C40ED11CCA14DB0420F1AC01E7
:103020004A195B09DA011296159780F06282738261
:1030300051834083D9016D937C93E114F10471F0C5
:10304000D7011396FC93EE93129776CF22968C0FAE
:103050009D1FF90191838083F301EFCFF093E70384
:10306000E093E60369CF4816590608F42C017D0168
:10307000D3019ACFCB010E946A167C01009749F0D8
:10308000AE01B8010E944C18C8010E9406178701C2
:1030900053CF10E000E050CFFB01DC0102C00190F3
:1030A0000D9241505040D8F70895FB01DC0101908A
:1030B0000D920020E1F7089510E0C3E6D0E004C0CF
:1030C000FE010E9449162196C436D107C9F7F8942B
:1030D000FFCFFF0000E8038000000000003F029FD8
:1030E00001CC018C02FD01DB01EF0100000000E0DA
:1030F000049F017605DF043C055405C70400000069
:1031000000CB069F01760575056E616E00696E66DF
:10311000006F7666004750524D4300475047474185
:1031200000202054484552452049532046495245E5
:103130002000204E4F5420534146452048455245DB
:10314000200053656E64696E6720534D532E2E2EFA
:103150000041542B434D47463D310D0041542B4314
:103160004D47533D222B32333332363633303236ED
:103170003037220D004649524520414C45525421DA
:103180000D0046495245204F434355524544210DB9
:103190000046495245204F4343555245442120693A
:1031A0006E0D004C61746974756465203D200020CB
:1031B0004C6F6E676974756465203D20000D0A00D0
:1031C000202020204E4F204649524520202020001C
:1031D000202020414C4C2053414645202020000017
:107E0000112484B714BE81FFF0D085E080938100F7
:107E100082E08093C00088E18093C10086E0809377
:107E2000C20080E18093C4008EE0C9D0259A86E02C
:107E300020E33CEF91E0309385002093840096BBD3
:107E4000B09BFECF1D9AA8958150A9F7CC24DD24C4
:107E500088248394B5E0AB2EA1E19A2EF3E0BF2EE7
:107E6000A2D0813461F49FD0082FAFD0023811F036
:107E7000013811F484E001C083E08DD089C08234E0
:107E800011F484E103C0853419F485E0A6D080C0E4
:107E9000853579F488D0E82EFF2485D0082F10E0AE
:107EA000102F00270E291F29000F111F8ED06801E7
:107EB0006FC0863521F484E090D080E0DECF843638
:107EC00009F040C070D06FD0082F6DD080E0C81688
:107ED00080E7D80618F4F601B7BEE895C0E0D1E017
:107EE00062D089930C17E1F7F0E0CF16F0E7DF06D8
:107EF00018F0F601B7BEE89568D007B600FCFDCFD4
:107F0000A601A0E0B1E02C9130E011968C91119780
:107F100090E0982F8827822B932B1296FA010C0160
:107F200087BEE89511244E5F5F4FF1E0A038BF0790
:107F300051F7F601A7BEE89507B600FCFDCF97BE46
:107F4000E89526C08437B1F42ED02DD0F82E2BD052
:107F50003CD0F601EF2C8F010F5F1F4F84911BD097
:107F6000EA94F801C1F70894C11CD11CFA94CF0C13
:107F7000D11C0EC0853739F428D08EE10CD085E9AC
:107F80000AD08FE07ACF813511F488E018D01DD067
:107F900080E101D065CF982F8091C00085FFFCCF94
:107FA0009093C60008958091C00087FFFCCF809118
:107FB000C00084FD01C0A8958091C6000895E0E648
:107FC000F0E098E1908380830895EDDF803219F02E
:107FD00088E0F5DFFFCF84E1DECF1F93182FE3DFCA
:107FE0001150E9F7F2DF1F91089580E0E8DFEE27F6
:047FF000FF270994CA
:027FFE00040479
:00000001FF
